:060000000A128A11B62F5E
:100F6C00F801F90183010A128A11BC2FF601F7016D
:100F7C000A128A11D1270A128A117408F700730811
:100F8C00F60076037704031DCD2F0000CE2F000052
:100F9C000A128A110028F9005530F800F000780880
:100FAC00F5270A128A117008F500F508031DE42FC5
:100FBC007908E12F7908F301F4010800AA30F80050
:100FCC00F0007808F5270A128A117008F500F50868
:100FDC000319E02F7908F301F30AF4010800F20079
:100FEC0070060319FC2FF001F1010800F001F00A62
:040FFC00F1010800F7
:00000001FF
