:060000000A128A116E2FA6
:100EDC00FB01FC01FD01A201A30183010A128A118D
:100EEC00772FF9010330FA00A001A1017A08F40070
:100EFC0079080A128A1195270A128A117508A1001D
:100F0C007408A0002108093A243003192006031D97
:100F1C00912F0000922F00000A128A110028F8006D
:100F2C00F601F701740878060319B12FA201A30189
:100F3C007608B6270A128A11FD00CB270A128A11ED
:100F4C002208A0070318A10A2308A107F80AF60A29
:100F5C000319F70A982F2108F5002008F40008005F
:100F6C00F0006400831603178C18B72F70088312D7
:100F7C008D003F3083168C050C1403100C180314D1
:100F8C000318013083120C0808000830FB01FC0127
:100F9C00F200F3017B087D06F000F01FE32F7C08C4
:100FAC00F1007B08F00005300310F00DF10D700618
:100FBC00FB0080307106FC00E62F0310FB0DFC0DCE
:100FCC00FF300310FD0DF207031CF3037308803A86
:100FDC00FF0080307F02031DF52F013072027B0869
:100FEC000318D12F83120313A2070318A30A7C083A
:040FFC00A30708003F
:00000001FF
