:0800000000000A128A113F2ED4
:100C7E00F80183010A128A11442E0A128A11522691
:100C8E000A128A11F700770B4E2E00004F2E00002D
:100C9E000A128A110128F8010530780203185D2E18
:100CAE007808503E84008001F80A532EF801053072
:100CBE0078020318702E7808503EF1000030F201D1
:100CCE001C270A128A11F600F60803190034F80AD6
:100CDE005E2EF801053078020318832E7808503EF8
:100CEE00F1000030F2016B270A128A11F600F608A5
:100CFE0003190034F80A712E0430F800F8080319AD
:100D0E00962E7808503EF1000030F201BE260A12EF
:100D1E008A11F600F60803190034F80B882E5030AD
:100D2E00F100F201BE260A128A11F600F608031926
:100D3E0000340430F800F8080319B32E7808503E3A
:100D4E00F1000030F201F4260A128A11F600F608BC
:100D5E0003190034F80BA52E5030F100F201F426E1
:100D6E000A128A11F600F608031D01340034F5014B
:100D7E000830750203180134710884008317721C41
:100D8E0083130008F300750ACE2E0310F30CFF3EFA
:100D9E00031DCC2E731C00347108A2270A128A116F
:100DAE00E0270A128A11B1270A128A11A2270A1203
:100DBE008A110004F40071088400B1270A128A1106
:100DCE00A2270A128A11E0270A128A1183137218B7
:100DDE00831774088000F50ABF2EF50108307502DE
:100DEE0003180134710884008317721C83130008E2
:100DFE00F300750A042F0310F30CFF3E031D022FA0
:100E0E00731800347108C7270A128A110004F727D5
:100E1E000A128A117108C7270A128A11FF3A0005B1
:100E2E00F7270A128A11F50AF52EF5010830750218
:100E3E000318362F7108E6270A128A11282F03107D
:100E4E00F30CFF3E031D262F7318003471089327F1
:100E5E000A128A110004D6270A128A111D2FF501D3
:100E6E00083075020318512F7108E6270A128A11ED
:100E7E00422F0310F30CFF3E031D402F731C003452
:100E8E00710893270A128A11FF3A0005D6270A1213
:100E9E008A11372FF50108307502031801347108D5
:100EAE00E6270A128A115D2F0310F30CFF3E031D75
:100EBE005B2F73180034710893270A128A110004ED
:100ECE00D6270A128A11522FF5010830750203181F
:100EDE000134710884008317721C83130008F30019
:100EEE00750A7B2F0310F30CFF3E031D792F731C25
:100EFE0000347108B8270A128A11FF3A0005EE274E
:100F0E000A128A117108B8270A128A110004EE27F4
:100F1E000A128A11F50A6C2F84008317721C831330
:100F2E000130F300750A9D2F0310F30DFF3E031DD4
:100F3E009B2F7308080084008317721C83130130E3
:100F4E00F300750AAC2F0310F30DFF3E031DAA2FFD
:100F5E0073080800831372188317740880007108D1
:100F6E00080084008317721C83130130F300750A86
:100F7E00C22F0310F30DFF3E031DC02F7308080090
:100F8E0084008317721C83130130F300750AD12F6E
:100F9E000310F30DFF3E031DCF2F73080800F4005E
:100FAE007108840083137218831774088000F50A81
:100FBE000800FF3A0005F400710884000800840060
:100FCE008317721C83130008F300750A0800F400DF
:100FDE007108840083137218831774088000080048
:100FEE00F40071088400831372188317740880004C
:020FFE000800E9
:00000001FF
