:060000000A128A11562BC2
:10060000FF0003308A007F088207052B0A128A1137
:10061000002D0A128A11002C0130F40005303D2310
:100620000A128A1100250A128A117108F70070084F
:10063000F60077087906031D1F2B76087806031944
:10064000242BF201F30108000430F40004303D23B0
:100650000A128A1100240A128A117108F700700820
:10066000F60077087906031D372B76087806031DF8
:10067000212BF201F20AF3010800F5007408F800DA
:100680007508F90008000A128A110C230A128A114F
:100690007308FB007208FA007A037B04031D522BD7
:1006A0000000532B00000A128A110028F601F701FE
:0C06B000F801F90183010A128A11432BA2
:0A0800000430F0000430F10008009D
:0A0A00000130F0000530F10008009D
:00000001FF
