:0C00000000008031032888018631FC2EAE
:100DF800F7012000FF2E09278631F600760B062F13
:100E08000000072F000080310328F7010430770223
:100E18000318152F7708503E860087018101F70ACD
:100E28000A2FF701043077020318252F7708F127D6
:100E3800863191278631F500F50803190034F70A41
:100E4800162FF701043077020318352F7708F62795
:100E58008631B9278631F500F50803190034F70AF9
:100E6800262FF701043077020318452F7708FB2750
:100E78008631E2278631F500F50803190034F70AB0
:100E8800362F0330F700F7080319552F7708F12795
:100E9800863191278631F500F50803190034F70BE0
:100EA8004A2F5030F000F10191278631F500F508FE
:100EB800031900340330F700F70803196E2F770879
:100EC800F6278631B9278631F500F508031900346D
:100ED800F70B632F5030F000F101B9278631F50088
:100EE800F508031900340330F700F7080319872FB2
:100EF8007708FB278631E2278631F500F5080319C4
:100F08000034F70B7C2F5030F000F101E2278631D6
:100F1800F500F508031D01340034F40108307402AB
:100F28000318013470088600710887000108F20070
:100F3800740A9F2FF236890B9E2F7218003470089E
:100F48008600710887000130F200740AAC2FF23570
:100F5800890BAB2F72080104F30070088600710832
:100F6800870073088100F40A922FF4010830740294
:100F78000318013470088600710887000108F20020
:100F8800740AC72FF236890BC62F721C00347008FA
:100F98008600710887000130F200740AD42FF235F8
:100FA800890BD32F7208FF3A0105F30070088600F9
:100FB8007108870073088100F40ABA2FF20108301B
:100FC800720203180134700886007108870001084E
:100FD800003A031D0034F20AE32F503EF0000030BF
:100FE800F1010800503EF0000030F1010800503EC9
:080FF800F0000030F1010800D7
:00000001FF
