:0800000000000A128A11882F8A
:100F1000F10183010A128A118D2F0A128A119B276F
:100F20000A128A11F200720B972F0000982F00000E
:100F30000A128A110128F101103071020318A72F3B
:100F40007108503E8400AA308000F10A9C2FF10104
:100F5000103071020318BA2F7108503E8400000847
:100F6000AA3A031D00347108503E840055308000B9
:100F7000F10AA82FF101103071020318CD2F71086A
:100F8000503E84000008553A031D00347108503E5D
:100F90008400AA308000F10ABB2F0F30F100F10865
:100FA0000319E02F7108503E84000008AA3A031D7F
:100FB00000347108503E840055308000F103CF2F7B
:100FC0005008AA3A031D00345530D0000F30F1000C
:100FD000F1080319F92F7108503E84000008553AB2
:100FE000031D00347108503E8400AA308000F103D4
:100FF000E82F5008553A031D0034AA30D0000134C0
:00000001FF
